{
  "_format": "hh-sol-artifact-1",
  "contractName": "Casino",
  "sourceName": "contracts/Casino.sol",
  "abi": [
    {
      "inputs": [],
      "stateMutability": "nonpayable",
      "type": "constructor"
    },
    {
      "inputs": [
        {
          "internalType": "address",
          "name": "owner",
          "type": "address"
        }
      ],
      "name": "OwnableInvalidOwner",
      "type": "error"
    },
    {
      "inputs": [
        {
          "internalType": "address",
          "name": "account",
          "type": "address"
        }
      ],
      "name": "OwnableUnauthorizedAccount",
      "type": "error"
    },
    {
      "inputs": [],
      "name": "ReentrancyGuardReentrantCall",
      "type": "error"
    },
    {
      "anonymous": false,
      "inputs": [
        {
          "indexed": true,
          "internalType": "address",
          "name": "owner",
          "type": "address"
        },
        {
          "indexed": false,
          "internalType": "uint256",
          "name": "amount",
          "type": "uint256"
        }
      ],
      "name": "CasinoFunded",
      "type": "event"
    },
    {
      "anonymous": false,
      "inputs": [
        {
          "indexed": true,
          "internalType": "address",
          "name": "player",
          "type": "address"
        },
        {
          "indexed": false,
          "internalType": "uint256",
          "name": "bet",
          "type": "uint256"
        },
        {
          "indexed": false,
          "internalType": "bool",
          "name": "choice",
          "type": "bool"
        },
        {
          "indexed": false,
          "internalType": "bool",
          "name": "result",
          "type": "bool"
        },
        {
          "indexed": false,
          "internalType": "bool",
          "name": "win",
          "type": "bool"
        },
        {
          "indexed": false,
          "internalType": "uint256",
          "name": "payout",
          "type": "uint256"
        }
      ],
      "name": "CoinFlipPlayed",
      "type": "event"
    },
    {
      "anonymous": false,
      "inputs": [
        {
          "indexed": true,
          "internalType": "address",
          "name": "previousOwner",
          "type": "address"
        },
        {
          "indexed": true,
          "internalType": "address",
          "name": "newOwner",
          "type": "address"
        }
      ],
      "name": "OwnershipTransferred",
      "type": "event"
    },
    {
      "anonymous": false,
      "inputs": [
        {
          "indexed": true,
          "internalType": "address",
          "name": "owner",
          "type": "address"
        },
        {
          "indexed": false,
          "internalType": "uint256",
          "name": "amount",
          "type": "uint256"
        }
      ],
      "name": "ProfitsWithdrawn",
      "type": "event"
    },
    {
      "anonymous": false,
      "inputs": [
        {
          "indexed": true,
          "internalType": "address",
          "name": "player",
          "type": "address"
        },
        {
          "indexed": false,
          "internalType": "uint256",
          "name": "bet",
          "type": "uint256"
        },
        {
          "indexed": false,
          "internalType": "uint8",
          "name": "betType",
          "type": "uint8"
        },
        {
          "indexed": false,
          "internalType": "uint8",
          "name": "betNumber",
          "type": "uint8"
        },
        {
          "indexed": false,
          "internalType": "uint8",
          "name": "resultNumber",
          "type": "uint8"
        },
        {
          "indexed": false,
          "internalType": "bool",
          "name": "win",
          "type": "bool"
        },
        {
          "indexed": false,
          "internalType": "uint256",
          "name": "payout",
          "type": "uint256"
        }
      ],
      "name": "RoulettePlayed",
      "type": "event"
    },
    {
      "anonymous": false,
      "inputs": [
        {
          "indexed": true,
          "internalType": "address",
          "name": "player",
          "type": "address"
        },
        {
          "indexed": false,
          "internalType": "uint256",
          "name": "bet",
          "type": "uint256"
        },
        {
          "indexed": false,
          "internalType": "uint8[3]",
          "name": "symbols",
          "type": "uint8[3]"
        },
        {
          "indexed": false,
          "internalType": "bool",
          "name": "win",
          "type": "bool"
        },
        {
          "indexed": false,
          "internalType": "uint256",
          "name": "payout",
          "type": "uint256"
        }
      ],
      "name": "SlotsPlayed",
      "type": "event"
    },
    {
      "inputs": [],
      "name": "fundCasino",
      "outputs": [],
      "stateMutability": "payable",
      "type": "function"
    },
    {
      "inputs": [],
      "name": "getCasinoBalance",
      "outputs": [
        {
          "internalType": "uint256",
          "name": "",
          "type": "uint256"
        }
      ],
      "stateMutability": "view",
      "type": "function"
    },
    {
      "inputs": [],
      "name": "owner",
      "outputs": [
        {
          "internalType": "address",
          "name": "",
          "type": "address"
        }
      ],
      "stateMutability": "view",
      "type": "function"
    },
    {
      "inputs": [
        {
          "internalType": "bool",
          "name": "heads",
          "type": "bool"
        }
      ],
      "name": "playCoinFlip",
      "outputs": [],
      "stateMutability": "payable",
      "type": "function"
    },
    {
      "inputs": [
        {
          "internalType": "uint8",
          "name": "betType",
          "type": "uint8"
        },
        {
          "internalType": "uint8",
          "name": "number",
          "type": "uint8"
        }
      ],
      "name": "playRoulette",
      "outputs": [],
      "stateMutability": "payable",
      "type": "function"
    },
    {
      "inputs": [],
      "name": "playSlots",
      "outputs": [],
      "stateMutability": "payable",
      "type": "function"
    },
    {
      "inputs": [],
      "name": "renounceOwnership",
      "outputs": [],
      "stateMutability": "nonpayable",
      "type": "function"
    },
    {
      "inputs": [
        {
          "internalType": "address",
          "name": "newOwner",
          "type": "address"
        }
      ],
      "name": "transferOwnership",
      "outputs": [],
      "stateMutability": "nonpayable",
      "type": "function"
    },
    {
      "inputs": [
        {
          "internalType": "uint256",
          "name": "amount",
          "type": "uint256"
        }
      ],
      "name": "withdrawProfits",
      "outputs": [],
      "stateMutability": "nonpayable",
      "type": "function"
    }
  ],
  "bytecode": "0x60806040523480156200001157600080fd5b5033600073ffffffffffffffffffffffffffffffffffffffff168173ffffffffffffffffffffffffffffffffffffffff1603620000885760006040517f1e4fbdf70000000000000000000000000000000000000000000000000000000081526004016200007f919062000207565b60405180910390fd5b6200009981620000c960201b60201c565b506001620000bc620000b06200018d60201b60201c565b620001b860201b60201c565b6000018190555062000224565b60008060009054906101000a900473ffffffffffffffffffffffffffffffffffffffff169050816000806101000a81548173ffffffffffffffffffffffffffffffffffffffff021916908373ffffffffffffffffffffffffffffffffffffffff1602179055508173ffffffffffffffffffffffffffffffffffffffff168173ffffffffffffffffffffffffffffffffffffffff167f8be0079c531659141344cd1fd0a4f28419497f9722a3daafe3b4186f6b6457e060405160405180910390a35050565b60007f9b779b17422d0df92223018b32b4d1fa46e071723d6817e2486d003becc55f0060001b905090565b6000819050919050565b600073ffffffffffffffffffffffffffffffffffffffff82169050919050565b6000620001ef82620001c2565b9050919050565b6200020181620001e2565b82525050565b60006020820190506200021e6000830184620001f6565b92915050565b611b5c80620002346000396000f3fe6080604052600436106100865760003560e01c80638da5cb5b116100595780638da5cb5b146100f3578063dedae3831461011e578063f23723a51461013a578063f2fde38b14610144578063ff8c94a81461016d57610086565b80631a0843c01461008b57806323fb9360146100b65780635a34a638146100d2578063715018a6146100dc575b600080fd5b34801561009757600080fd5b506100a0610196565b6040516100ad919061104f565b60405180910390f35b6100d060048036038101906100cb91906110a7565b61019e565b005b6100da610358565b005b3480156100e857600080fd5b506100f161054a565b005b3480156100ff57600080fd5b5061010861055e565b6040516101159190611115565b60405180910390f35b61013860048036038101906101339190611169565b610587565b005b610142610895565b005b34801561015057600080fd5b5061016b600480360381019061016691906111d5565b610930565b005b34801561017957600080fd5b50610194600480360381019061018f919061122e565b6109b6565b005b600047905090565b6101a6610b60565b600034116101e9576040517f08c379a00000000000000000000000000000000000000000000000000000000081526004016101e0906112b8565b60405180910390fd5b600034905060006002826101fd9190611307565b905061020881610b83565b6000806102156002610bc9565b14905060008480156102245750815b80610237575084158015610236575081155b5b9050600081156102f25783905060003373ffffffffffffffffffffffffffffffffffffffff168260405161026a9061137a565b60006040518083038185875af1925050503d80600081146102a7576040519150601f19603f3d011682016040523d82523d6000602084013e6102ac565b606091505b50509050806102f0576040517f08c379a00000000000000000000000000000000000000000000000000000000081526004016102e7906113db565b60405180910390fd5b505b3373ffffffffffffffffffffffffffffffffffffffff167fb4148fb413de807e1e041485907b0a497b0cf2f26389a6de5be9b81a170ebc74868886868660405161034095949392919061140a565b60405180910390a25050505050610355610c0d565b50565b610360610b60565b600034116103a3576040517f08c379a000000000000000000000000000000000000000000000000000000000815260040161039a906112b8565b60405180910390fd5b60003490506103b0611014565b60005b60038110156103f7576103c66006610bc9565b8282600381106103d9576103d861145d565b5b602002019060ff16908160ff168152505080806001019150506103b3565b5060008061040483610c28565b9150915060008280156104175750600082115b156104e7576000828661042a9190611307565b905061043581610b83565b80915060003373ffffffffffffffffffffffffffffffffffffffff168360405161045e9061137a565b60006040518083038185875af1925050503d806000811461049b576040519150601f19603f3d011682016040523d82523d6000602084013e6104a0565b606091505b50509050806104e4576040517f08c379a00000000000000000000000000000000000000000000000000000000081526004016104db906114d8565b60405180910390fd5b50505b3373ffffffffffffffffffffffffffffffffffffffff167f066001872bfc3361d8bb7070d88cb9ae3a25437a65a66cda9d080ee413e40a098686868560405161053394939291906115a3565b60405180910390a25050505050610548610c0d565b565b610552610cff565b61055c6000610d86565b565b60008060009054906101000a900473ffffffffffffffffffffffffffffffffffffffff16905090565b61058f610b60565b600034116105d2576040517f08c379a00000000000000000000000000000000000000000000000000000000081526004016105c9906112b8565b60405180910390fd5b60048260ff161115610619576040517f08c379a000000000000000000000000000000000000000000000000000000000815260040161061090611634565b60405180910390fd5b60048260ff160361066c5760248160ff16111561066b576040517f08c379a0000000000000000000000000000000000000000000000000000000008152600401610662906116a0565b60405180910390fd5b5b6000349050600060048460ff1603610687576024905061068c565b600290505b6000818361069a9190611307565b90506106a581610b83565b60006106b16025610bc9565b905060006106be82610e4a565b90506000808360ff16141580156106e4575060006002846106df91906116ef565b60ff16145b90506000808960ff16036106fa57829050610770565b60018960ff160361071e5760008460ff1614158015610717575082155b905061076f565b60028960ff16036107315781905061076e565b60038960ff16036107555760008460ff161415801561074e575081155b905061076d565b60048960ff160361076c578760ff168460ff161490505b5b5b5b5b600081156108295785905060003373ffffffffffffffffffffffffffffffffffffffff16826040516107a19061137a565b60006040518083038185875af1925050503d80600081146107de576040519150601f19603f3d011682016040523d82523d6000602084013e6107e3565b606091505b5050905080610827576040517f08c379a000000000000000000000000000000000000000000000000000000000815260040161081e9061176c565b60405180910390fd5b505b3373ffffffffffffffffffffffffffffffffffffffff167f33371bb3c116b8f4dd6ccaf3cf91added1e3d61a0599c74a1554320730f9ed92898c8c8987876040516108799695949392919061179b565b60405180910390a25050505050505050610891610c0d565b5050565b61089d610cff565b600034116108e0576040517f08c379a00000000000000000000000000000000000000000000000000000000081526004016108d790611848565b60405180910390fd5b3373ffffffffffffffffffffffffffffffffffffffff167fb513a9878de10c82def8212c6ead7d34080f2397a32c3dfb694c76498b1b272734604051610926919061104f565b60405180910390a2565b610938610cff565b600073ffffffffffffffffffffffffffffffffffffffff168173ffffffffffffffffffffffffffffffffffffffff16036109aa5760006040517f1e4fbdf70000000000000000000000000000000000000000000000000000000081526004016109a19190611115565b60405180910390fd5b6109b381610d86565b50565b6109be610cff565b6109c6610b60565b60008111610a09576040517f08c379a0000000000000000000000000000000000000000000000000000000008152600401610a00906118b4565b60405180910390fd5b47811115610a4c576040517f08c379a0000000000000000000000000000000000000000000000000000000008152600401610a4390611920565b60405180910390fd5b6000610a5661055e565b73ffffffffffffffffffffffffffffffffffffffff1682604051610a799061137a565b60006040518083038185875af1925050503d8060008114610ab6576040519150601f19603f3d011682016040523d82523d6000602084013e610abb565b606091505b5050905080610aff576040517f08c379a0000000000000000000000000000000000000000000000000000000008152600401610af69061198c565b60405180910390fd5b610b0761055e565b73ffffffffffffffffffffffffffffffffffffffff167f124fd12bda4dcb813885ca782fb4ea9350d4f752b1a881cadf8742d8f128bb8e83604051610b4c919061104f565b60405180910390a250610b5d610c0d565b50565b610b68610f78565b6002610b7a610b75610fb9565b610fe4565b60000181905550565b47811115610bc6576040517f08c379a0000000000000000000000000000000000000000000000000000000008152600401610bbd90611a1e565b60405180910390fd5b50565b60008142334443604051602001610be39493929190611aa7565b6040516020818303038152906040528051906020012060001c610c069190611af5565b9050919050565b6001610c1f610c1a610fb9565b610fe4565b60000181905550565b600080600083600060038110610c4157610c4061145d565b5b60200201519050600084600160038110610c5e57610c5d61145d565b5b60200201519050600085600260038110610c7b57610c7a61145d565b5b602002015190508160ff168360ff16148015610c9c57508060ff168260ff16145b15610cb1576001600594509450505050610cfa565b8160ff168360ff161480610cca57508060ff168260ff16145b80610cda57508060ff168360ff16145b15610cef576001600294509450505050610cfa565b600080945094505050505b915091565b610d07610fee565b73ffffffffffffffffffffffffffffffffffffffff16610d2561055e565b73ffffffffffffffffffffffffffffffffffffffff1614610d8457610d48610fee565b6040517f118cdaa7000000000000000000000000000000000000000000000000000000008152600401610d7b9190611115565b60405180910390fd5b565b60008060009054906101000a900473ffffffffffffffffffffffffffffffffffffffff169050816000806101000a81548173ffffffffffffffffffffffffffffffffffffffff021916908373ffffffffffffffffffffffffffffffffffffffff1602179055508173ffffffffffffffffffffffffffffffffffffffff168173ffffffffffffffffffffffffffffffffffffffff167f8be0079c531659141344cd1fd0a4f28419497f9722a3daafe3b4186f6b6457e060405160405180910390a35050565b6000808260ff1603610e5f5760009050610f73565b6000604051806102400160405280600160ff1660ff168152602001600360ff168152602001600560ff168152602001600760ff168152602001600960ff168152602001600c60ff168152602001600e60ff168152602001601060ff168152602001601260ff168152602001601360ff168152602001601560ff168152602001601760ff168152602001601960ff168152602001601b60ff168152602001601e60ff168152602001602060ff168152602001602260ff168152602001602460ff16815250905060005b6012811015610f6c57818160128110610f4357610f4261145d565b5b602002015160ff168460ff1603610f5f57600192505050610f73565b8080600101915050610f27565b5060009150505b919050565b610f80610ff6565b15610fb7576040517f3ee5aeb500000000000000000000000000000000000000000000000000000000815260040160405180910390fd5b565b60007f9b779b17422d0df92223018b32b4d1fa46e071723d6817e2486d003becc55f0060001b905090565b6000819050919050565b600033905090565b6000600261100a611005610fb9565b610fe4565b6000015414905090565b6040518060600160405280600390602082028036833780820191505090505090565b6000819050919050565b61104981611036565b82525050565b60006020820190506110646000830184611040565b92915050565b600080fd5b60008115159050919050565b6110848161106f565b811461108f57600080fd5b50565b6000813590506110a18161107b565b92915050565b6000602082840312156110bd576110bc61106a565b5b60006110cb84828501611092565b91505092915050565b600073ffffffffffffffffffffffffffffffffffffffff82169050919050565b60006110ff826110d4565b9050919050565b61110f816110f4565b82525050565b600060208201905061112a6000830184611106565b92915050565b600060ff82169050919050565b61114681611130565b811461115157600080fd5b50565b6000813590506111638161113d565b92915050565b600080604083850312156111805761117f61106a565b5b600061118e85828601611154565b925050602061119f85828601611154565b9150509250929050565b6111b2816110f4565b81146111bd57600080fd5b50565b6000813590506111cf816111a9565b92915050565b6000602082840312156111eb576111ea61106a565b5b60006111f9848285016111c0565b91505092915050565b61120b81611036565b811461121657600080fd5b50565b60008135905061122881611202565b92915050565b6000602082840312156112445761124361106a565b5b600061125284828501611219565b91505092915050565b600082825260208201905092915050565b7f426574206d7573742062652067726561746572207468616e207a65726f000000600082015250565b60006112a2601d8361125b565b91506112ad8261126c565b602082019050919050565b600060208201905081810360008301526112d181611295565b9050919050565b7f4e487b7100000000000000000000000000000000000000000000000000000000600052601160045260246000fd5b600061131282611036565b915061131d83611036565b925082820261132b81611036565b91508282048414831517611342576113416112d8565b5b5092915050565b600081905092915050565b50565b6000611364600083611349565b915061136f82611354565b600082019050919050565b600061138582611357565b9150819050919050565b7f436f696e20666c6970207061796f7574206661696c6564000000000000000000600082015250565b60006113c560178361125b565b91506113d08261138f565b602082019050919050565b600060208201905081810360008301526113f4816113b8565b9050919050565b6114048161106f565b82525050565b600060a08201905061141f6000830188611040565b61142c60208301876113fb565b61143960408301866113fb565b61144660608301856113fb565b6114536080830184611040565b9695505050505050565b7f4e487b7100000000000000000000000000000000000000000000000000000000600052603260045260246000fd5b7f536c6f7473207061796f7574206661696c656400000000000000000000000000600082015250565b60006114c260138361125b565b91506114cd8261148c565b602082019050919050565b600060208201905081810360008301526114f1816114b5565b9050919050565b600060039050919050565b600081905092915050565b6000819050919050565b61152181611130565b82525050565b60006115338383611518565b60208301905092915050565b6000602082019050919050565b611555816114f8565b61155f8184611503565b925061156a8261150e565b8060005b8381101561159b5781516115828782611527565b965061158d8361153f565b92505060018101905061156e565b505050505050565b600060c0820190506115b86000830187611040565b6115c5602083018661154c565b6115d260808301856113fb565b6115df60a0830184611040565b95945050505050565b7f496e76616c696420626574207479706500000000000000000000000000000000600082015250565b600061161e60108361125b565b9150611629826115e8565b602082019050919050565b6000602082019050818103600083015261164d81611611565b9050919050565b7f496e76616c6964206e756d626572000000000000000000000000000000000000600082015250565b600061168a600e8361125b565b915061169582611654565b602082019050919050565b600060208201905081810360008301526116b98161167d565b9050919050565b7f4e487b7100000000000000000000000000000000000000000000000000000000600052601260045260246000fd5b60006116fa82611130565b915061170583611130565b925082611715576117146116c0565b5b828206905092915050565b7f526f756c65747465207061796f7574206661696c656400000000000000000000600082015250565b600061175660168361125b565b915061176182611720565b602082019050919050565b6000602082019050818103600083015261178581611749565b9050919050565b61179581611130565b82525050565b600060c0820190506117b06000830189611040565b6117bd602083018861178c565b6117ca604083018761178c565b6117d7606083018661178c565b6117e460808301856113fb565b6117f160a0830184611040565b979650505050505050565b7f4d7573742073656e642066756e64730000000000000000000000000000000000600082015250565b6000611832600f8361125b565b915061183d826117fc565b602082019050919050565b6000602082019050818103600083015261186181611825565b9050919050565b7f416d6f756e74206d757374206265203e20300000000000000000000000000000600082015250565b600061189e60128361125b565b91506118a982611868565b602082019050919050565b600060208201905081810360008301526118cd81611891565b9050919050565b7f436173696e6f3a20696e73756666696369656e742062616c616e636500000000600082015250565b600061190a601c8361125b565b9150611915826118d4565b602082019050919050565b60006020820190508181036000830152611939816118fd565b9050919050565b7f5769746864726177206661696c65640000000000000000000000000000000000600082015250565b6000611976600f8361125b565b915061198182611940565b602082019050919050565b600060208201905081810360008301526119a581611969565b9050919050565b7f436173696e6f3a20696e73756666696369656e74206c6971756964697479206660008201527f6f72207061796f75740000000000000000000000000000000000000000000000602082015250565b6000611a0860298361125b565b9150611a13826119ac565b604082019050919050565b60006020820190508181036000830152611a37816119fb565b9050919050565b6000819050919050565b611a59611a5482611036565b611a3e565b82525050565b60008160601b9050919050565b6000611a7782611a5f565b9050919050565b6000611a8982611a6c565b9050919050565b611aa1611a9c826110f4565b611a7e565b82525050565b6000611ab38287611a48565b602082019150611ac38286611a90565b601482019150611ad38285611a48565b602082019150611ae38284611a48565b60208201915081905095945050505050565b6000611b0082611036565b9150611b0b83611036565b925082611b1b57611b1a6116c0565b5b82820690509291505056fea26469706673582212205c6cd3ced71756ab7baaacae4db68c9994c77e5b001c1554aeca51b02d2528a564736f6c63430008180033",
  "linkReferences": {},
  "deployedLinkReferences": {}
}